{
  "_format": "hh-sol-artifact-1",
  "contractName": "EpicNFT",
  "sourceName": "contracts/EpicNFT.sol",
  "abi": [
    {
      "inputs": [],
      "stateMutability": "nonpayable",
      "type": "constructor"
    },
    {
      "anonymous": false,
      "inputs": [
        {
          "indexed": true,
          "internalType": "address",
          "name": "owner",
          "type": "address"
        },
        {
          "indexed": true,
          "internalType": "address",
          "name": "approved",
          "type": "address"
        },
        {
          "indexed": true,
          "internalType": "uint256",
          "name": "tokenId",
          "type": "uint256"
        }
      ],
      "name": "Approval",
      "type": "event"
    },
    {
      "anonymous": false,
      "inputs": [
        {
          "indexed": true,
          "internalType": "address",
          "name": "owner",
          "type": "address"
        },
        {
          "indexed": true,
          "internalType": "address",
          "name": "operator",
          "type": "address"
        },
        {
          "indexed": false,
          "internalType": "bool",
          "name": "approved",
          "type": "bool"
        }
      ],
      "name": "ApprovalForAll",
      "type": "event"
    },
    {
      "anonymous": false,
      "inputs": [
        {
          "indexed": false,
          "internalType": "address",
          "name": "sender",
          "type": "address"
        },
        {
          "indexed": false,
          "internalType": "uint256",
          "name": "tokenId",
          "type": "uint256"
        }
      ],
      "name": "NewNFTMinted",
      "type": "event"
    },
    {
      "anonymous": false,
      "inputs": [
        {
          "indexed": true,
          "internalType": "address",
          "name": "from",
          "type": "address"
        },
        {
          "indexed": true,
          "internalType": "address",
          "name": "to",
          "type": "address"
        },
        {
          "indexed": true,
          "internalType": "uint256",
          "name": "tokenId",
          "type": "uint256"
        }
      ],
      "name": "Transfer",
      "type": "event"
    },
    {
      "inputs": [
        {
          "internalType": "address",
          "name": "to",
          "type": "address"
        },
        {
          "internalType": "uint256",
          "name": "tokenId",
          "type": "uint256"
        }
      ],
      "name": "approve",
      "outputs": [],
      "stateMutability": "nonpayable",
      "type": "function"
    },
    {
      "inputs": [
        {
          "internalType": "address",
          "name": "owner",
          "type": "address"
        }
      ],
      "name": "balanceOf",
      "outputs": [
        {
          "internalType": "uint256",
          "name": "",
          "type": "uint256"
        }
      ],
      "stateMutability": "view",
      "type": "function"
    },
    {
      "inputs": [
        {
          "internalType": "uint256",
          "name": "tokenId",
          "type": "uint256"
        }
      ],
      "name": "getApproved",
      "outputs": [
        {
          "internalType": "address",
          "name": "",
          "type": "address"
        }
      ],
      "stateMutability": "view",
      "type": "function"
    },
    {
      "inputs": [
        {
          "internalType": "address",
          "name": "owner",
          "type": "address"
        },
        {
          "internalType": "address",
          "name": "operator",
          "type": "address"
        }
      ],
      "name": "isApprovedForAll",
      "outputs": [
        {
          "internalType": "bool",
          "name": "",
          "type": "bool"
        }
      ],
      "stateMutability": "view",
      "type": "function"
    },
    {
      "inputs": [],
      "name": "makeEpicNFT",
      "outputs": [],
      "stateMutability": "nonpayable",
      "type": "function"
    },
    {
      "inputs": [],
      "name": "name",
      "outputs": [
        {
          "internalType": "string",
          "name": "",
          "type": "string"
        }
      ],
      "stateMutability": "view",
      "type": "function"
    },
    {
      "inputs": [
        {
          "internalType": "uint256",
          "name": "tokenId",
          "type": "uint256"
        }
      ],
      "name": "ownerOf",
      "outputs": [
        {
          "internalType": "address",
          "name": "",
          "type": "address"
        }
      ],
      "stateMutability": "view",
      "type": "function"
    },
    {
      "inputs": [
        {
          "internalType": "uint256",
          "name": "tokenId",
          "type": "uint256"
        }
      ],
      "name": "pickRandomColor",
      "outputs": [
        {
          "internalType": "string",
          "name": "",
          "type": "string"
        }
      ],
      "stateMutability": "view",
      "type": "function"
    },
    {
      "inputs": [
        {
          "internalType": "uint256",
          "name": "tokenId",
          "type": "uint256"
        }
      ],
      "name": "pickRandomFirstWord",
      "outputs": [
        {
          "internalType": "string",
          "name": "",
          "type": "string"
        }
      ],
      "stateMutability": "view",
      "type": "function"
    },
    {
      "inputs": [
        {
          "internalType": "uint256",
          "name": "tokenId",
          "type": "uint256"
        }
      ],
      "name": "pickRandomSecondWord",
      "outputs": [
        {
          "internalType": "string",
          "name": "",
          "type": "string"
        }
      ],
      "stateMutability": "view",
      "type": "function"
    },
    {
      "inputs": [
        {
          "internalType": "uint256",
          "name": "tokenId",
          "type": "uint256"
        }
      ],
      "name": "pickRandomThirdWord",
      "outputs": [
        {
          "internalType": "string",
          "name": "",
          "type": "string"
        }
      ],
      "stateMutability": "view",
      "type": "function"
    },
    {
      "inputs": [
        {
          "internalType": "address",
          "name": "from",
          "type": "address"
        },
        {
          "internalType": "address",
          "name": "to",
          "type": "address"
        },
        {
          "internalType": "uint256",
          "name": "tokenId",
          "type": "uint256"
        }
      ],
      "name": "safeTransferFrom",
      "outputs": [],
      "stateMutability": "nonpayable",
      "type": "function"
    },
    {
      "inputs": [
        {
          "internalType": "address",
          "name": "from",
          "type": "address"
        },
        {
          "internalType": "address",
          "name": "to",
          "type": "address"
        },
        {
          "internalType": "uint256",
          "name": "tokenId",
          "type": "uint256"
        },
        {
          "internalType": "bytes",
          "name": "_data",
          "type": "bytes"
        }
      ],
      "name": "safeTransferFrom",
      "outputs": [],
      "stateMutability": "nonpayable",
      "type": "function"
    },
    {
      "inputs": [
        {
          "internalType": "address",
          "name": "operator",
          "type": "address"
        },
        {
          "internalType": "bool",
          "name": "approved",
          "type": "bool"
        }
      ],
      "name": "setApprovalForAll",
      "outputs": [],
      "stateMutability": "nonpayable",
      "type": "function"
    },
    {
      "inputs": [
        {
          "internalType": "bytes4",
          "name": "interfaceId",
          "type": "bytes4"
        }
      ],
      "name": "supportsInterface",
      "outputs": [
        {
          "internalType": "bool",
          "name": "",
          "type": "bool"
        }
      ],
      "stateMutability": "view",
      "type": "function"
    },
    {
      "inputs": [],
      "name": "symbol",
      "outputs": [
        {
          "internalType": "string",
          "name": "",
          "type": "string"
        }
      ],
      "stateMutability": "view",
      "type": "function"
    },
    {
      "inputs": [
        {
          "internalType": "uint256",
          "name": "tokenId",
          "type": "uint256"
        }
      ],
      "name": "tokenURI",
      "outputs": [
        {
          "internalType": "string",
          "name": "",
          "type": "string"
        }
      ],
      "stateMutability": "view",
      "type": "function"
    },
    {
      "inputs": [
        {
          "internalType": "address",
          "name": "from",
          "type": "address"
        },
        {
          "internalType": "address",
          "name": "to",
          "type": "address"
        },
        {
          "internalType": "uint256",
          "name": "tokenId",
          "type": "uint256"
        }
      ],
      "name": "transferFrom",
      "outputs": [],
      "stateMutability": "nonpayable",
      "type": "function"
    }
  ],
  "bytecode": "0x608060405260405180610100016040528060d3815260200162004a1760d39139600890805190602001906200003692919062000a7d565b5060405180608001604052806057815260200162004aea60579139600990805190602001906200006892919062000a7d565b506040518061012001604052806040518060400160405280600581526020017f437275656c00000000000000000000000000000000000000000000000000000081525081526020016040518060400160405280600681526020017f436c65766572000000000000000000000000000000000000000000000000000081525081526020016040518060400160405280600581526020017f416e67727900000000000000000000000000000000000000000000000000000081525081526020016040518060400160405280600681526020017f4e6172726f77000000000000000000000000000000000000000000000000000081525081526020016040518060400160405280600681526020017f47656e746c65000000000000000000000000000000000000000000000000000081525081526020016040518060400160405280600881526020017f467269656e646c7900000000000000000000000000000000000000000000000081525081526020016040518060400160405280600581526020017f537570657200000000000000000000000000000000000000000000000000000081525081526020016040518060400160405280600881526020017f496e66696e69747900000000000000000000000000000000000000000000000081525081526020016040518060400160405280600481526020017f4265737400000000000000000000000000000000000000000000000000000000815250815250600a9060096200029892919062000b0e565b506040518061012001604052806040518060400160405280600381526020017f417865000000000000000000000000000000000000000000000000000000000081525081526020016040518060400160405280600781526020017f4d6163686574650000000000000000000000000000000000000000000000000081525081526020016040518060400160405280600681526020017f446167676572000000000000000000000000000000000000000000000000000081525081526020016040518060400160405280600781526020017f4772656e6164650000000000000000000000000000000000000000000000000081525081526020016040518060400160405280600681526020017f526966666c65000000000000000000000000000000000000000000000000000081525081526020016040518060400160405280600381526020017f47756e000000000000000000000000000000000000000000000000000000000081525081526020016040518060400160405280600581526020017f4b6e69666500000000000000000000000000000000000000000000000000000081525081526020016040518060400160405280600581526020017f53776f726400000000000000000000000000000000000000000000000000000081525081526020016040518060400160405280600681526020017f526f636b65740000000000000000000000000000000000000000000000000000815250815250600b906009620004c892919062000b0e565b506040518061012001604052806040518060400160405280600681526020017f546f746f726f000000000000000000000000000000000000000000000000000081525081526020016040518060400160405280600581526020017f4c7570696e00000000000000000000000000000000000000000000000000000081525081526020016040518060400160405280600781526020017f50696b616368750000000000000000000000000000000000000000000000000081525081526020016040518060400160405280600781526020017f557a756d616b690000000000000000000000000000000000000000000000000081525081526020016040518060400160405280600581526020017f496b61726900000000000000000000000000000000000000000000000000000081525081526020016040518060400160405280600481526020017f476f6b750000000000000000000000000000000000000000000000000000000081525081526020016040518060400160405280600781526020017f4b696e7a6172750000000000000000000000000000000000000000000000000081525081526020016040518060400160405280600581526020017f4f7369626100000000000000000000000000000000000000000000000000000081525081526020016040518060400160405280600681526020017f4b656e6368690000000000000000000000000000000000000000000000000000815250815250600c906009620006f892919062000b0e565b506040518060e001604052806040518060400160405280600381526020017f726564000000000000000000000000000000000000000000000000000000000081525081526020016040518060400160405280600581526020017f677265656e00000000000000000000000000000000000000000000000000000081525081526020016040518060400160405280600481526020017f626c75650000000000000000000000000000000000000000000000000000000081525081526020016040518060400160405280600681526020017f696e6469676f000000000000000000000000000000000000000000000000000081525081526020016040518060400160405280600481526020017f6e6176790000000000000000000000000000000000000000000000000000000081525081526020016040518060400160405280600681526020017f707572706c65000000000000000000000000000000000000000000000000000081525081526020016040518060400160405280600581526020017f6f6c697665000000000000000000000000000000000000000000000000000000815250815250600d906007620008b192919062000b75565b50348015620008bf57600080fd5b506040518060400160405280600d81526020017f5468726565576f7264734e4654000000000000000000000000000000000000008152506040518060400160405280600681526020017f33574f524453000000000000000000000000000000000000000000000000000081525081600090805190602001906200094492919062000a7d565b5080600190805190602001906200095d92919062000a7d565b505050620009ab6040518060400160405280602081526020017f54686973206973206e65772033574f524453204e465420434f4e545241435421815250620009b160201b620012711760201c565b62000d96565b62000a5181604051602401620009c8919062000caa565b6040516020818303038152906040527f41304fac000000000000000000000000000000000000000000000000000000007bffffffffffffffffffffffffffffffffffffffffffffffffffffffff19166020820180517bffffffffffffffffffffffffffffffffffffffffffffffffffffffff838183161783525050505062000a5460201b60201c565b50565b60008151905060006a636f6e736f6c652e6c6f679050602083016000808483855afa5050505050565b82805462000a8b9062000d20565b90600052602060002090601f01602090048101928262000aaf576000855562000afb565b82601f1062000aca57805160ff191683800117855562000afb565b8280016001018555821562000afb579182015b8281111562000afa57825182559160200191906001019062000add565b5b50905062000b0a919062000bdc565b5090565b82805482825590600052602060002090810192821562000b62579160200282015b8281111562000b6157825182908051906020019062000b5092919062000a7d565b509160200191906001019062000b2f565b5b50905062000b71919062000bfb565b5090565b82805482825590600052602060002090810192821562000bc9579160200282015b8281111562000bc857825182908051906020019062000bb792919062000a7d565b509160200191906001019062000b96565b5b50905062000bd8919062000bfb565b5090565b5b8082111562000bf757600081600090555060010162000bdd565b5090565b5b8082111562000c1f576000818162000c15919062000c23565b5060010162000bfc565b5090565b50805462000c319062000d20565b6000825580601f1062000c45575062000c66565b601f01602090049060005260206000209081019062000c65919062000bdc565b5b50565b600062000c768262000cce565b62000c82818562000cd9565b935062000c9481856020860162000cea565b62000c9f8162000d85565b840191505092915050565b6000602082019050818103600083015262000cc6818462000c69565b905092915050565b600081519050919050565b600082825260208201905092915050565b60005b8381101562000d0a57808201518184015260208101905062000ced565b8381111562000d1a576000848401525b50505050565b6000600282049050600182168062000d3957607f821691505b6020821081141562000d505762000d4f62000d56565b5b50919050565b7f4e487b7100000000000000000000000000000000000000000000000000000000600052602260045260246000fd5b6000601f19601f8301169050919050565b613c718062000da66000396000f3fe608060405234801561001057600080fd5b50600436106101165760003560e01c80636352211e116100a2578063b187301f11610071578063b187301f146102f1578063b88d4fde14610321578063c575757a1461033d578063c87b56dd1461036d578063e985e9c51461039d57610116565b80636352211e1461025757806370a082311461028757806395d89b41146102b7578063a22cb465146102d557610116565b806323b872dd116100e957806323b872dd146101b55780632de38d68146101d157806342842e0e14610201578063514dc8c61461021d57806362b41f491461024d57610116565b806301ffc9a71461011b57806306fdde031461014b578063081812fc14610169578063095ea7b314610199575b600080fd5b61013560048036038101906101309190612671565b6103cd565b6040516101429190612e17565b60405180910390f35b6101536104af565b6040516101609190612e32565b60405180910390f35b610183600480360381019061017e91906126c3565b610541565b6040516101909190612d87565b60405180910390f35b6101b360048036038101906101ae9190612635565b6105c6565b005b6101cf60048036038101906101ca919061252f565b6106de565b005b6101eb60048036038101906101e691906126c3565b61073e565b6040516101f89190612e32565b60405180910390f35b61021b6004803603810190610216919061252f565b61085c565b005b610237600480360381019061023291906126c3565b61087c565b6040516102449190612e32565b60405180910390f35b61025561099a565b005b610271600480360381019061026c91906126c3565b610bdb565b60405161027e9190612d87565b60405180910390f35b6102a1600480360381019061029c91906124ca565b610c8d565b6040516102ae91906130b2565b60405180910390f35b6102bf610d45565b6040516102cc9190612e32565b60405180910390f35b6102ef60048036038101906102ea91906125f9565b610dd7565b005b61030b600480360381019061030691906126c3565b610ded565b6040516103189190612e32565b60405180910390f35b61033b6004803603810190610336919061257e565b610f0b565b005b610357600480360381019061035291906126c3565b610f6d565b6040516103649190612e32565b60405180910390f35b610387600480360381019061038291906126c3565b61108b565b6040516103949190612e32565b60405180910390f35b6103b760048036038101906103b291906124f3565b6111dd565b6040516103c49190612e17565b60405180910390f35b60007f80ac58cd000000000000000000000000000000000000000000000000000000007bffffffffffffffffffffffffffffffffffffffffffffffffffffffff1916827bffffffffffffffffffffffffffffffffffffffffffffffffffffffff1916148061049857507f5b5e139f000000000000000000000000000000000000000000000000000000007bffffffffffffffffffffffffffffffffffffffffffffffffffffffff1916827bffffffffffffffffffffffffffffffffffffffffffffffffffffffff1916145b806104a857506104a78261130a565b5b9050919050565b6060600080546104be90613346565b80601f01602080910402602001604051908101604052809291908181526020018280546104ea90613346565b80156105375780601f1061050c57610100808354040283529160200191610537565b820191906000526020600020905b81548152906001019060200180831161051a57829003601f168201915b5050505050905090565b600061054c82611374565b61058b576040517f08c379a000000000000000000000000000000000000000000000000000000000815260040161058290612ff2565b60405180910390fd5b6004600083815260200190815260200160002060009054906101000a900473ffffffffffffffffffffffffffffffffffffffff169050919050565b60006105d182610bdb565b90508073ffffffffffffffffffffffffffffffffffffffff168373ffffffffffffffffffffffffffffffffffffffff161415610642576040517f08c379a000000000000000000000000000000000000000000000000000000000815260040161063990613072565b60405180910390fd5b8073ffffffffffffffffffffffffffffffffffffffff166106616113e0565b73ffffffffffffffffffffffffffffffffffffffff161480610690575061068f8161068a6113e0565b6111dd565b5b6106cf576040517f08c379a00000000000000000000000000000000000000000000000000000000081526004016106c690612f32565b60405180910390fd5b6106d983836113e8565b505050565b6106ef6106e96113e0565b826114a1565b61072e576040517f08c379a000000000000000000000000000000000000000000000000000000000815260040161072590613092565b60405180910390fd5b61073983838361157f565b505050565b6060600061077261074e846117db565b60405160200161075e9190612d21565b604051602081830303815290604052611988565b9050600a805490508161078591906133f2565b9050600a81815481106107c1577f4e487b7100000000000000000000000000000000000000000000000000000000600052603260045260246000fd5b9060005260206000200180546107d690613346565b80601f016020809104026020016040519081016040528092919081815260200182805461080290613346565b801561084f5780601f106108245761010080835404028352916020019161084f565b820191906000526020600020905b81548152906001019060200180831161083257829003601f168201915b5050505050915050919050565b61087783838360405180602001604052806000815250610f0b565b505050565b606060006108b061088c846117db565b60405160200161089c9190612d65565b604051602081830303815290604052611988565b9050600d80549050816108c391906133f2565b9050600d81815481106108ff577f4e487b7100000000000000000000000000000000000000000000000000000000600052603260045260246000fd5b90600052602060002001805461091490613346565b80601f016020809104026020016040519081016040528092919081815260200182805461094090613346565b801561098d5780601f106109625761010080835404028352916020019161098d565b820191906000526020600020905b81548152906001019060200180831161097057829003601f168201915b5050505050915050919050565b60006109a660076119bb565b9050603281106109eb576040517f08c379a00000000000000000000000000000000000000000000000000000000081526004016109e290613052565b60405180910390fd5b60006109f68261073e565b90506000610a0383610ded565b90506000610a1084610f6d565b90506000610a1d8561087c565b90506000848484604051602001610a3693929190612c04565b604051602081830303815290604052905060006008836009888888604051602001610a6696959493929190612c35565b60405160208183030381529060405290506000610aab83610a86846119c9565b604051602001610a97929190612cdc565b6040516020818303038152906040526119c9565b9050600081604051602001610ac09190612d43565b6040516020818303038152906040529050610b0f6040518060400160405280601c81526020017f2d2d2d2d2d2d2046696e616c20546f6b656e555249202d2d2d2d2d2d00000000815250611271565b610b1881611271565b610b566040518060400160405280601c81526020017f2d2d2d2d2d2d2d2d2d2d2d2d2d2d2d2d2d2d2d2d2d2d2d2d2d2d2d2d00000000815250611271565b610b60338a611b87565b610b6a8982611ba5565b610b746007611c19565b610b97604051806060016040528060258152602001613bd7602591398a33611c2f565b7f1c05098ed1ff38e6238d2b1b04b2c7977d4c94ce651bda6473f9dba8dbf01da0338a604051610bc8929190612dee565b60405180910390a1505050505050505050565b6000806002600084815260200190815260200160002060009054906101000a900473ffffffffffffffffffffffffffffffffffffffff169050600073ffffffffffffffffffffffffffffffffffffffff168173ffffffffffffffffffffffffffffffffffffffff161415610c84576040517f08c379a0000000000000000000000000000000000000000000000000000000008152600401610c7b90612f72565b60405180910390fd5b80915050919050565b60008073ffffffffffffffffffffffffffffffffffffffff168273ffffffffffffffffffffffffffffffffffffffff161415610cfe576040517f08c379a0000000000000000000000000000000000000000000000000000000008152600401610cf590612f52565b60405180910390fd5b600360008373ffffffffffffffffffffffffffffffffffffffff1673ffffffffffffffffffffffffffffffffffffffff168152602001908152602001600020549050919050565b606060018054610d5490613346565b80601f0160208091040260200160405190810160405280929190818152602001828054610d8090613346565b8015610dcd5780601f10610da257610100808354040283529160200191610dcd565b820191906000526020600020905b815481529060010190602001808311610db057829003601f168201915b5050505050905090565b610de9610de26113e0565b8383611cce565b5050565b60606000610e21610dfd846117db565b604051602001610e0d9190612cba565b604051602081830303815290604052611988565b9050600b8054905081610e3491906133f2565b9050600b8181548110610e70577f4e487b7100000000000000000000000000000000000000000000000000000000600052603260045260246000fd5b906000526020600020018054610e8590613346565b80601f0160208091040260200160405190810160405280929190818152602001828054610eb190613346565b8015610efe5780601f10610ed357610100808354040283529160200191610efe565b820191906000526020600020905b815481529060010190602001808311610ee157829003601f168201915b5050505050915050919050565b610f1c610f166113e0565b836114a1565b610f5b576040517f08c379a0000000000000000000000000000000000000000000000000000000008152600401610f5290613092565b60405180910390fd5b610f6784848484611e3b565b50505050565b60606000610fa1610f7d846117db565b604051602001610f8d9190612c98565b604051602081830303815290604052611988565b9050600c8054905081610fb491906133f2565b9050600c8181548110610ff0577f4e487b7100000000000000000000000000000000000000000000000000000000600052603260045260246000fd5b90600052602060002001805461100590613346565b80601f016020809104026020016040519081016040528092919081815260200182805461103190613346565b801561107e5780601f106110535761010080835404028352916020019161107e565b820191906000526020600020905b81548152906001019060200180831161106157829003601f168201915b5050505050915050919050565b606061109682611374565b6110d5576040517f08c379a00000000000000000000000000000000000000000000000000000000081526004016110cc90612fd2565b60405180910390fd5b60006006600084815260200190815260200160002080546110f590613346565b80601f016020809104026020016040519081016040528092919081815260200182805461112190613346565b801561116e5780601f106111435761010080835404028352916020019161116e565b820191906000526020600020905b81548152906001019060200180831161115157829003601f168201915b50505050509050600061117f611e97565b90506000815114156111955781925050506111d8565b6000825111156111ca5780826040516020016111b2929190612be0565b604051602081830303815290604052925050506111d8565b6111d384611eae565b925050505b919050565b6000600560008473ffffffffffffffffffffffffffffffffffffffff1673ffffffffffffffffffffffffffffffffffffffff16815260200190815260200160002060008373ffffffffffffffffffffffffffffffffffffffff1673ffffffffffffffffffffffffffffffffffffffff16815260200190815260200160002060009054906101000a900460ff16905092915050565b611307816040516024016112859190612e32565b6040516020818303038152906040527f41304fac000000000000000000000000000000000000000000000000000000007bffffffffffffffffffffffffffffffffffffffffffffffffffffffff19166020820180517bffffffffffffffffffffffffffffffffffffffffffffffffffffffff8381831617835250505050611f55565b50565b60007f01ffc9a7000000000000000000000000000000000000000000000000000000007bffffffffffffffffffffffffffffffffffffffffffffffffffffffff1916827bffffffffffffffffffffffffffffffffffffffffffffffffffffffff1916149050919050565b60008073ffffffffffffffffffffffffffffffffffffffff166002600084815260200190815260200160002060009054906101000a900473ffffffffffffffffffffffffffffffffffffffff1673ffffffffffffffffffffffffffffffffffffffff1614159050919050565b600033905090565b816004600083815260200190815260200160002060006101000a81548173ffffffffffffffffffffffffffffffffffffffff021916908373ffffffffffffffffffffffffffffffffffffffff160217905550808273ffffffffffffffffffffffffffffffffffffffff1661145b83610bdb565b73ffffffffffffffffffffffffffffffffffffffff167f8c5be1e5ebec7d5bd14f71427d1e84f3dd0314c0f7b2291e5b200ac8c7c3b92560405160405180910390a45050565b60006114ac82611374565b6114eb576040517f08c379a00000000000000000000000000000000000000000000000000000000081526004016114e290612f12565b60405180910390fd5b60006114f683610bdb565b90508073ffffffffffffffffffffffffffffffffffffffff168473ffffffffffffffffffffffffffffffffffffffff16148061156557508373ffffffffffffffffffffffffffffffffffffffff1661154d84610541565b73ffffffffffffffffffffffffffffffffffffffff16145b80611576575061157581856111dd565b5b91505092915050565b8273ffffffffffffffffffffffffffffffffffffffff1661159f82610bdb565b73ffffffffffffffffffffffffffffffffffffffff16146115f5576040517f08c379a00000000000000000000000000000000000000000000000000000000081526004016115ec90613012565b60405180910390fd5b600073ffffffffffffffffffffffffffffffffffffffff168273ffffffffffffffffffffffffffffffffffffffff161415611665576040517f08c379a000000000000000000000000000000000000000000000000000000000815260040161165c90612ed2565b60405180910390fd5b611670838383611f7e565b61167b6000826113e8565b6001600360008573ffffffffffffffffffffffffffffffffffffffff1673ffffffffffffffffffffffffffffffffffffffff16815260200190815260200160002060008282546116cb919061325c565b925050819055506001600360008473ffffffffffffffffffffffffffffffffffffffff1673ffffffffffffffffffffffffffffffffffffffff1681526020019081526020016000206000828254611722919061317b565b92505081905550816002600083815260200190815260200160002060006101000a81548173ffffffffffffffffffffffffffffffffffffffff021916908373ffffffffffffffffffffffffffffffffffffffff160217905550808273ffffffffffffffffffffffffffffffffffffffff168473ffffffffffffffffffffffffffffffffffffffff167fddf252ad1be2c89b69c2b068fc378daa952ba7f163c4a11628f55a4df523b3ef60405160405180910390a4505050565b60606000821415611823576040518060400160405280600181526020017f30000000000000000000000000000000000000000000000000000000000000008152509050611983565b600082905060005b6000821461185557808061183e906133a9565b915050600a8261184e91906131d1565b915061182b565b60008167ffffffffffffffff811115611897577f4e487b7100000000000000000000000000000000000000000000000000000000600052604160045260246000fd5b6040519080825280601f01601f1916602001820160405280156118c95781602001600182028036833780820191505090505b5090505b6000851461197c576001826118e2919061325c565b9150600a856118f191906133f2565b60306118fd919061317b565b60f81b818381518110611939577f4e487b7100000000000000000000000000000000000000000000000000000000600052603260045260246000fd5b60200101907effffffffffffffffffffffffffffffffffffffffffffffffffffffffffffff1916908160001a905350600a8561197591906131d1565b94506118cd565b8093505050505b919050565b60008160405160200161199b9190612bc9565b6040516020818303038152906040528051906020012060001c9050919050565b600081600001549050919050565b606060008251905060008114156119f25760405180602001604052806000815250915050611b82565b60006003600283611a03919061317b565b611a0d91906131d1565b6004611a199190613202565b90506000602082611a2a919061317b565b67ffffffffffffffff811115611a69577f4e487b7100000000000000000000000000000000000000000000000000000000600052604160045260246000fd5b6040519080825280601f01601f191660200182016040528015611a9b5781602001600182028036833780820191505090505b5090506000604051806060016040528060408152602001613bfc604091399050600181016020830160005b86811015611b3f5760038101905062ffffff818a015116603f8160121c168401518060081b905060ff603f83600c1c1686015116810190508060081b905060ff603f8360061c1686015116810190508060081b905060ff603f831686015116810190508060e01b90508084526004840193505050611ac6565b506003860660018114611b595760028114611b6957611b74565b613d3d60f01b6002830352611b74565b603d60f81b60018303525b508484525050819450505050505b919050565b611ba1828260405180602001604052806000815250611f83565b5050565b611bae82611374565b611bed576040517f08c379a0000000000000000000000000000000000000000000000000000000008152600401611be490612f92565b60405180910390fd5b80600660008481526020019081526020016000209080519060200190611c14929190612356565b505050565b6001816000016000828254019250508190555050565b611cc9838383604051602401611c4793929190612e54565b6040516020818303038152906040527fe3849f79000000000000000000000000000000000000000000000000000000007bffffffffffffffffffffffffffffffffffffffffffffffffffffffff19166020820180517bffffffffffffffffffffffffffffffffffffffffffffffffffffffff8381831617835250505050611f55565b505050565b8173ffffffffffffffffffffffffffffffffffffffff168373ffffffffffffffffffffffffffffffffffffffff161415611d3d576040517f08c379a0000000000000000000000000000000000000000000000000000000008152600401611d3490612ef2565b60405180910390fd5b80600560008573ffffffffffffffffffffffffffffffffffffffff1673ffffffffffffffffffffffffffffffffffffffff16815260200190815260200160002060008473ffffffffffffffffffffffffffffffffffffffff1673ffffffffffffffffffffffffffffffffffffffff16815260200190815260200160002060006101000a81548160ff0219169083151502179055508173ffffffffffffffffffffffffffffffffffffffff168373ffffffffffffffffffffffffffffffffffffffff167f17307eab39ab6107e8899845ad3d59bd9653f200f220920489ca2b5937696c3183604051611e2e9190612e17565b60405180910390a3505050565b611e4684848461157f565b611e5284848484611fde565b611e91576040517f08c379a0000000000000000000000000000000000000000000000000000000008152600401611e8890612e92565b60405180910390fd5b50505050565b606060405180602001604052806000815250905090565b6060611eb982611374565b611ef8576040517f08c379a0000000000000000000000000000000000000000000000000000000008152600401611eef90613032565b60405180910390fd5b6000611f02611e97565b90506000815111611f225760405180602001604052806000815250611f4d565b80611f2c846117db565b604051602001611f3d929190612be0565b6040516020818303038152906040525b915050919050565b60008151905060006a636f6e736f6c652e6c6f679050602083016000808483855afa5050505050565b505050565b611f8d8383612175565b611f9a6000848484611fde565b611fd9576040517f08c379a0000000000000000000000000000000000000000000000000000000008152600401611fd090612e92565b60405180910390fd5b505050565b6000611fff8473ffffffffffffffffffffffffffffffffffffffff16612343565b15612168578373ffffffffffffffffffffffffffffffffffffffff1663150b7a026120286113e0565b8786866040518563ffffffff1660e01b815260040161204a9493929190612da2565b602060405180830381600087803b15801561206457600080fd5b505af192505050801561209557506040513d601f19601f82011682018060405250810190612092919061269a565b60015b612118573d80600081146120c5576040519150601f19603f3d011682016040523d82523d6000602084013e6120ca565b606091505b50600081511415612110576040517f08c379a000000000000000000000000000000000000000000000000000000000815260040161210790612e92565b60405180910390fd5b805181602001fd5b63150b7a0260e01b7bffffffffffffffffffffffffffffffffffffffffffffffffffffffff1916817bffffffffffffffffffffffffffffffffffffffffffffffffffffffff19161491505061216d565b600190505b949350505050565b600073ffffffffffffffffffffffffffffffffffffffff168273ffffffffffffffffffffffffffffffffffffffff1614156121e5576040517f08c379a00000000000000000000000000000000000000000000000000000000081526004016121dc90612fb2565b60405180910390fd5b6121ee81611374565b1561222e576040517f08c379a000000000000000000000000000000000000000000000000000000000815260040161222590612eb2565b60405180910390fd5b61223a60008383611f7e565b6001600360008473ffffffffffffffffffffffffffffffffffffffff1673ffffffffffffffffffffffffffffffffffffffff168152602001908152602001600020600082825461228a919061317b565b92505081905550816002600083815260200190815260200160002060006101000a81548173ffffffffffffffffffffffffffffffffffffffff021916908373ffffffffffffffffffffffffffffffffffffffff160217905550808273ffffffffffffffffffffffffffffffffffffffff16600073ffffffffffffffffffffffffffffffffffffffff167fddf252ad1be2c89b69c2b068fc378daa952ba7f163c4a11628f55a4df523b3ef60405160405180910390a45050565b600080823b905060008111915050919050565b82805461236290613346565b90600052602060002090601f01602090048101928261238457600085556123cb565b82601f1061239d57805160ff19168380011785556123cb565b828001600101855582156123cb579182015b828111156123ca5782518255916020019190600101906123af565b5b5090506123d891906123dc565b5090565b5b808211156123f55760008160009055506001016123dd565b5090565b600061240c612407846130f2565b6130cd565b90508281526020810184848401111561242457600080fd5b61242f848285613304565b509392505050565b60008135905061244681613b7a565b92915050565b60008135905061245b81613b91565b92915050565b60008135905061247081613ba8565b92915050565b60008151905061248581613ba8565b92915050565b600082601f83011261249c57600080fd5b81356124ac8482602086016123f9565b91505092915050565b6000813590506124c481613bbf565b92915050565b6000602082840312156124dc57600080fd5b60006124ea84828501612437565b91505092915050565b6000806040838503121561250657600080fd5b600061251485828601612437565b925050602061252585828601612437565b9150509250929050565b60008060006060848603121561254457600080fd5b600061255286828701612437565b935050602061256386828701612437565b9250506040612574868287016124b5565b9150509250925092565b6000806000806080858703121561259457600080fd5b60006125a287828801612437565b94505060206125b387828801612437565b93505060406125c4878288016124b5565b925050606085013567ffffffffffffffff8111156125e157600080fd5b6125ed8782880161248b565b91505092959194509250565b6000806040838503121561260c57600080fd5b600061261a85828601612437565b925050602061262b8582860161244c565b9150509250929050565b6000806040838503121561264857600080fd5b600061265685828601612437565b9250506020612667858286016124b5565b9150509250929050565b60006020828403121561268357600080fd5b600061269184828501612461565b91505092915050565b6000602082840312156126ac57600080fd5b60006126ba84828501612476565b91505092915050565b6000602082840312156126d557600080fd5b60006126e3848285016124b5565b91505092915050565b6126f581613290565b82525050565b612704816132a2565b82525050565b600061271582613138565b61271f818561314e565b935061272f818560208601613313565b612738816134df565b840191505092915050565b600061274e82613143565b612758818561315f565b9350612768818560208601613313565b612771816134df565b840191505092915050565b600061278782613143565b6127918185613170565b93506127a1818560208601613313565b80840191505092915050565b600081546127ba81613346565b6127c48186613170565b945060018216600081146127df57600181146127f057612823565b60ff19831686528186019350612823565b6127f985613123565b60005b8381101561281b578154818901526001820191506020810190506127fc565b838801955050505b50505092915050565b600061283960328361315f565b9150612844826134f0565b604082019050919050565b600061285c601c8361315f565b91506128678261353f565b602082019050919050565b600061287f600a83613170565b915061288a82613568565b600a82019050919050565b60006128a260248361315f565b91506128ad82613591565b604082019050919050565b60006128c560198361315f565b91506128d0826135e0565b602082019050919050565b60006128e8600b83613170565b91506128f382613609565b600b82019050919050565b600061290b602c8361315f565b915061291682613632565b604082019050919050565b600061292e600d83613170565b915061293982613681565b600d82019050919050565b600061295160388361315f565b915061295c826136aa565b604082019050919050565b6000612974602a8361315f565b915061297f826136f9565b604082019050919050565b600061299760298361315f565b91506129a282613748565b604082019050919050565b60006129ba602e8361315f565b91506129c582613797565b604082019050919050565b60006129dd600283613170565b91506129e8826137e6565b600282019050919050565b6000612a0060208361315f565b9150612a0b8261380f565b602082019050919050565b6000612a2360318361315f565b9150612a2e82613838565b604082019050919050565b6000612a46602c8361315f565b9150612a5182613887565b604082019050919050565b6000612a6960298361315f565b9150612a74826138d6565b604082019050919050565b6000612a8c602f8361315f565b9150612a9782613925565b604082019050919050565b6000612aaf600a83613170565b9150612aba82613974565b600a82019050919050565b6000612ad260118361315f565b9150612add8261399d565b602082019050919050565b6000612af560218361315f565b9150612b00826139c6565b604082019050919050565b6000612b18600a83613170565b9150612b2382613a15565b600a82019050919050565b6000612b3b601d83613170565b9150612b4682613a3e565b601d82019050919050565b6000612b5e60318361315f565b9150612b6982613a67565b604082019050919050565b6000612b81606583613170565b9150612b8c82613ab6565b606582019050919050565b6000612ba4600583613170565b9150612baf82613b51565b600582019050919050565b612bc3816132fa565b82525050565b6000612bd5828461277c565b915081905092915050565b6000612bec828561277c565b9150612bf8828461277c565b91508190509392505050565b6000612c10828661277c565b9150612c1c828561277c565b9150612c28828461277c565b9150819050949350505050565b6000612c4182896127ad565b9150612c4d828861277c565b9150612c5982876127ad565b9150612c65828661277c565b9150612c71828561277c565b9150612c7d828461277c565b9150612c8882612921565b9150819050979650505050505050565b6000612ca382612872565b9150612caf828461277c565b915081905092915050565b6000612cc5826128db565b9150612cd1828461277c565b915081905092915050565b6000612ce782612aa2565b9150612cf3828561277c565b9150612cfe82612b74565b9150612d0a828461277c565b9150612d15826129d0565b91508190509392505050565b6000612d2c82612b0b565b9150612d38828461277c565b915081905092915050565b6000612d4e82612b2e565b9150612d5a828461277c565b915081905092915050565b6000612d7082612b97565b9150612d7c828461277c565b915081905092915050565b6000602082019050612d9c60008301846126ec565b92915050565b6000608082019050612db760008301876126ec565b612dc460208301866126ec565b612dd16040830185612bba565b8181036060830152612de3818461270a565b905095945050505050565b6000604082019050612e0360008301856126ec565b612e106020830184612bba565b9392505050565b6000602082019050612e2c60008301846126fb565b92915050565b60006020820190508181036000830152612e4c8184612743565b905092915050565b60006060820190508181036000830152612e6e8186612743565b9050612e7d6020830185612bba565b612e8a60408301846126ec565b949350505050565b60006020820190508181036000830152612eab8161282c565b9050919050565b60006020820190508181036000830152612ecb8161284f565b9050919050565b60006020820190508181036000830152612eeb81612895565b9050919050565b60006020820190508181036000830152612f0b816128b8565b9050919050565b60006020820190508181036000830152612f2b816128fe565b9050919050565b60006020820190508181036000830152612f4b81612944565b9050919050565b60006020820190508181036000830152612f6b81612967565b9050919050565b60006020820190508181036000830152612f8b8161298a565b9050919050565b60006020820190508181036000830152612fab816129ad565b9050919050565b60006020820190508181036000830152612fcb816129f3565b9050919050565b60006020820190508181036000830152612feb81612a16565b9050919050565b6000602082019050818103600083015261300b81612a39565b9050919050565b6000602082019050818103600083015261302b81612a5c565b9050919050565b6000602082019050818103600083015261304b81612a7f565b9050919050565b6000602082019050818103600083015261306b81612ac5565b9050919050565b6000602082019050818103600083015261308b81612ae8565b9050919050565b600060208201905081810360008301526130ab81612b51565b9050919050565b60006020820190506130c76000830184612bba565b92915050565b60006130d76130e8565b90506130e38282613378565b919050565b6000604051905090565b600067ffffffffffffffff82111561310d5761310c6134b0565b5b613116826134df565b9050602081019050919050565b60008190508160005260206000209050919050565b600081519050919050565b600081519050919050565b600082825260208201905092915050565b600082825260208201905092915050565b600081905092915050565b6000613186826132fa565b9150613191836132fa565b9250827fffffffffffffffffffffffffffffffffffffffffffffffffffffffffffffffff038211156131c6576131c5613423565b5b828201905092915050565b60006131dc826132fa565b91506131e7836132fa565b9250826131f7576131f6613452565b5b828204905092915050565b600061320d826132fa565b9150613218836132fa565b9250817fffffffffffffffffffffffffffffffffffffffffffffffffffffffffffffffff048311821515161561325157613250613423565b5b828202905092915050565b6000613267826132fa565b9150613272836132fa565b92508282101561328557613284613423565b5b828203905092915050565b600061329b826132da565b9050919050565b60008115159050919050565b60007fffffffff0000000000000000000000000000000000000000000000000000000082169050919050565b600073ffffffffffffffffffffffffffffffffffffffff82169050919050565b6000819050919050565b82818337600083830152505050565b60005b83811015613331578082015181840152602081019050613316565b83811115613340576000848401525b50505050565b6000600282049050600182168061335e57607f821691505b6020821081141561337257613371613481565b5b50919050565b613381826134df565b810181811067ffffffffffffffff821117156133a05761339f6134b0565b5b80604052505050565b60006133b4826132fa565b91507fffffffffffffffffffffffffffffffffffffffffffffffffffffffffffffffff8214156133e7576133e6613423565b5b600182019050919050565b60006133fd826132fa565b9150613408836132fa565b92508261341857613417613452565b5b828206905092915050565b7f4e487b7100000000000000000000000000000000000000000000000000000000600052601160045260246000fd5b7f4e487b7100000000000000000000000000000000000000000000000000000000600052601260045260246000fd5b7f4e487b7100000000000000000000000000000000000000000000000000000000600052602260045260246000fd5b7f4e487b7100000000000000000000000000000000000000000000000000000000600052604160045260246000fd5b6000601f19601f8301169050919050565b7f4552433732313a207472616e7366657220746f206e6f6e20455243373231526560008201527f63656976657220696d706c656d656e7465720000000000000000000000000000602082015250565b7f4552433732313a20746f6b656e20616c7265616479206d696e74656400000000600082015250565b7f54484952445f574f524400000000000000000000000000000000000000000000600082015250565b7f4552433732313a207472616e7366657220746f20746865207a65726f2061646460008201527f7265737300000000000000000000000000000000000000000000000000000000602082015250565b7f4552433732313a20617070726f766520746f2063616c6c657200000000000000600082015250565b7f5345434f4e445f574f5244000000000000000000000000000000000000000000600082015250565b7f4552433732313a206f70657261746f7220717565727920666f72206e6f6e657860008201527f697374656e7420746f6b656e0000000000000000000000000000000000000000602082015250565b7f3c2f746578743e3c2f7376673e00000000000000000000000000000000000000600082015250565b7f4552433732313a20617070726f76652063616c6c6572206973206e6f74206f7760008201527f6e6572206e6f7220617070726f76656420666f7220616c6c0000000000000000602082015250565b7f4552433732313a2062616c616e636520717565727920666f7220746865207a6560008201527f726f206164647265737300000000000000000000000000000000000000000000602082015250565b7f4552433732313a206f776e657220717565727920666f72206e6f6e657869737460008201527f656e7420746f6b656e0000000000000000000000000000000000000000000000602082015250565b7f45524337323155524953746f726167653a2055524920736574206f66206e6f6e60008201527f6578697374656e7420746f6b656e000000000000000000000000000000000000602082015250565b7f227d000000000000000000000000000000000000000000000000000000000000600082015250565b7f4552433732313a206d696e7420746f20746865207a65726f2061646472657373600082015250565b7f45524337323155524953746f726167653a2055524920717565727920666f722060008201527f6e6f6e6578697374656e7420746f6b656e000000000000000000000000000000602082015250565b7f4552433732313a20617070726f76656420717565727920666f72206e6f6e657860008201527f697374656e7420746f6b656e0000000000000000000000000000000000000000602082015250565b7f4552433732313a207472616e73666572206f6620746f6b656e2074686174206960008201527f73206e6f74206f776e0000000000000000000000000000000000000000000000602082015250565b7f4552433732314d657461646174613a2055524920717565727920666f72206e6f60008201527f6e6578697374656e7420746f6b656e0000000000000000000000000000000000602082015250565b7f7b226e616d65223a202200000000000000000000000000000000000000000000600082015250565b7f4d6178203530204e46547320646f6e6521000000000000000000000000000000600082015250565b7f4552433732313a20617070726f76616c20746f2063757272656e74206f776e6560008201527f7200000000000000000000000000000000000000000000000000000000000000602082015250565b7f46495253545f574f524400000000000000000000000000000000000000000000600082015250565b7f646174613a6170706c69636174696f6e2f6a736f6e3b6261736536342c000000600082015250565b7f4552433732313a207472616e736665722063616c6c6572206973206e6f74206f60008201527f776e6572206e6f7220617070726f766564000000000000000000000000000000602082015250565b7f222c20226465736372697074696f6e223a2022417765736f6d65206e6577204e60008201527f465420636f6c6c656374696f6e206f6620636f6c6f7220737175617265732e2260208201527f2c22696d616765223a2022646174613a696d6167652f7376672b786d6c3b626160408201527f736536342c000000000000000000000000000000000000000000000000000000606082015250565b7f434f4c4f52000000000000000000000000000000000000000000000000000000600082015250565b613b8381613290565b8114613b8e57600080fd5b50565b613b9a816132a2565b8114613ba557600080fd5b50565b613bb1816132ae565b8114613bbc57600080fd5b50565b613bc8816132fa565b8114613bd357600080fd5b5056fe416e204e465420772f20494420257320686173206265656e206d696e74656420746f2025734142434445464748494a4b4c4d4e4f505152535455565758595a6162636465666768696a6b6c6d6e6f707172737475767778797a303132333435363738392b2fa2646970667358221220f902b5cf150536b7d0b236129e1b85ed43b7319914acc17af2f0308df61f973f64736f6c634300080400333c73766720786d6c6e733d27687474703a2f2f7777772e77332e6f72672f323030302f73766727207072657365727665417370656374526174696f3d27784d696e594d696e206d656574272076696577426f783d273020302033353020333530273e3c7374796c653e2e62617365207b2066696c6c3a2077686974653b20666f6e742d66616d696c793a2073657269663b20666f6e742d73697a653a20323470783b207d3c2f7374796c653e3c726563742077696474683d273130302527206865696768743d2731303025272066696c6c3d2727202f3e3c7465787420783d273530252720793d273530252720636c6173733d27626173652720646f6d696e616e742d626173656c696e653d276d6964646c652720746578742d616e63686f723d276d6964646c65273e",
  "linkReferences": {},
  "deployedLinkReferences": {}
}