{
  "_format": "hh-sol-artifact-1",
  "contractName": "EpicNFT",
  "sourceName": "contracts/EpicNFT.sol",
  "abi": [
    {
      "inputs": [],
      "stateMutability": "nonpayable",
      "type": "constructor"
    },
    {
      "anonymous": false,
      "inputs": [
        {
          "indexed": true,
          "internalType": "address",
          "name": "owner",
          "type": "address"
        },
        {
          "indexed": true,
          "internalType": "address",
          "name": "approved",
          "type": "address"
        },
        {
          "indexed": true,
          "internalType": "uint256",
          "name": "tokenId",
          "type": "uint256"
        }
      ],
      "name": "Approval",
      "type": "event"
    },
    {
      "anonymous": false,
      "inputs": [
        {
          "indexed": true,
          "internalType": "address",
          "name": "owner",
          "type": "address"
        },
        {
          "indexed": true,
          "internalType": "address",
          "name": "operator",
          "type": "address"
        },
        {
          "indexed": false,
          "internalType": "bool",
          "name": "approved",
          "type": "bool"
        }
      ],
      "name": "ApprovalForAll",
      "type": "event"
    },
    {
      "anonymous": false,
      "inputs": [
        {
          "indexed": false,
          "internalType": "address",
          "name": "sender",
          "type": "address"
        },
        {
          "indexed": false,
          "internalType": "uint256",
          "name": "tokenId",
          "type": "uint256"
        }
      ],
      "name": "NewNFTMinted",
      "type": "event"
    },
    {
      "anonymous": false,
      "inputs": [
        {
          "indexed": true,
          "internalType": "address",
          "name": "from",
          "type": "address"
        },
        {
          "indexed": true,
          "internalType": "address",
          "name": "to",
          "type": "address"
        },
        {
          "indexed": true,
          "internalType": "uint256",
          "name": "tokenId",
          "type": "uint256"
        }
      ],
      "name": "Transfer",
      "type": "event"
    },
    {
      "inputs": [
        {
          "internalType": "address",
          "name": "to",
          "type": "address"
        },
        {
          "internalType": "uint256",
          "name": "tokenId",
          "type": "uint256"
        }
      ],
      "name": "approve",
      "outputs": [],
      "stateMutability": "nonpayable",
      "type": "function"
    },
    {
      "inputs": [
        {
          "internalType": "address",
          "name": "owner",
          "type": "address"
        }
      ],
      "name": "balanceOf",
      "outputs": [
        {
          "internalType": "uint256",
          "name": "",
          "type": "uint256"
        }
      ],
      "stateMutability": "view",
      "type": "function"
    },
    {
      "inputs": [
        {
          "internalType": "uint256",
          "name": "tokenId",
          "type": "uint256"
        }
      ],
      "name": "getApproved",
      "outputs": [
        {
          "internalType": "address",
          "name": "",
          "type": "address"
        }
      ],
      "stateMutability": "view",
      "type": "function"
    },
    {
      "inputs": [
        {
          "internalType": "address",
          "name": "owner",
          "type": "address"
        },
        {
          "internalType": "address",
          "name": "operator",
          "type": "address"
        }
      ],
      "name": "isApprovedForAll",
      "outputs": [
        {
          "internalType": "bool",
          "name": "",
          "type": "bool"
        }
      ],
      "stateMutability": "view",
      "type": "function"
    },
    {
      "inputs": [],
      "name": "makeEpicNFT",
      "outputs": [],
      "stateMutability": "nonpayable",
      "type": "function"
    },
    {
      "inputs": [],
      "name": "name",
      "outputs": [
        {
          "internalType": "string",
          "name": "",
          "type": "string"
        }
      ],
      "stateMutability": "view",
      "type": "function"
    },
    {
      "inputs": [
        {
          "internalType": "uint256",
          "name": "tokenId",
          "type": "uint256"
        }
      ],
      "name": "ownerOf",
      "outputs": [
        {
          "internalType": "address",
          "name": "",
          "type": "address"
        }
      ],
      "stateMutability": "view",
      "type": "function"
    },
    {
      "inputs": [
        {
          "internalType": "uint256",
          "name": "tokenId",
          "type": "uint256"
        }
      ],
      "name": "pickRandomFirstWord",
      "outputs": [
        {
          "internalType": "string",
          "name": "",
          "type": "string"
        }
      ],
      "stateMutability": "view",
      "type": "function"
    },
    {
      "inputs": [
        {
          "internalType": "uint256",
          "name": "tokenId",
          "type": "uint256"
        }
      ],
      "name": "pickRandomSecondWord",
      "outputs": [
        {
          "internalType": "string",
          "name": "",
          "type": "string"
        }
      ],
      "stateMutability": "view",
      "type": "function"
    },
    {
      "inputs": [
        {
          "internalType": "uint256",
          "name": "tokenId",
          "type": "uint256"
        }
      ],
      "name": "pickRandomThirdWord",
      "outputs": [
        {
          "internalType": "string",
          "name": "",
          "type": "string"
        }
      ],
      "stateMutability": "view",
      "type": "function"
    },
    {
      "inputs": [
        {
          "internalType": "address",
          "name": "from",
          "type": "address"
        },
        {
          "internalType": "address",
          "name": "to",
          "type": "address"
        },
        {
          "internalType": "uint256",
          "name": "tokenId",
          "type": "uint256"
        }
      ],
      "name": "safeTransferFrom",
      "outputs": [],
      "stateMutability": "nonpayable",
      "type": "function"
    },
    {
      "inputs": [
        {
          "internalType": "address",
          "name": "from",
          "type": "address"
        },
        {
          "internalType": "address",
          "name": "to",
          "type": "address"
        },
        {
          "internalType": "uint256",
          "name": "tokenId",
          "type": "uint256"
        },
        {
          "internalType": "bytes",
          "name": "_data",
          "type": "bytes"
        }
      ],
      "name": "safeTransferFrom",
      "outputs": [],
      "stateMutability": "nonpayable",
      "type": "function"
    },
    {
      "inputs": [
        {
          "internalType": "address",
          "name": "operator",
          "type": "address"
        },
        {
          "internalType": "bool",
          "name": "approved",
          "type": "bool"
        }
      ],
      "name": "setApprovalForAll",
      "outputs": [],
      "stateMutability": "nonpayable",
      "type": "function"
    },
    {
      "inputs": [
        {
          "internalType": "bytes4",
          "name": "interfaceId",
          "type": "bytes4"
        }
      ],
      "name": "supportsInterface",
      "outputs": [
        {
          "internalType": "bool",
          "name": "",
          "type": "bool"
        }
      ],
      "stateMutability": "view",
      "type": "function"
    },
    {
      "inputs": [],
      "name": "symbol",
      "outputs": [
        {
          "internalType": "string",
          "name": "",
          "type": "string"
        }
      ],
      "stateMutability": "view",
      "type": "function"
    },
    {
      "inputs": [
        {
          "internalType": "uint256",
          "name": "tokenId",
          "type": "uint256"
        }
      ],
      "name": "tokenURI",
      "outputs": [
        {
          "internalType": "string",
          "name": "",
          "type": "string"
        }
      ],
      "stateMutability": "view",
      "type": "function"
    },
    {
      "inputs": [
        {
          "internalType": "address",
          "name": "from",
          "type": "address"
        },
        {
          "internalType": "address",
          "name": "to",
          "type": "address"
        },
        {
          "internalType": "uint256",
          "name": "tokenId",
          "type": "uint256"
        }
      ],
      "name": "transferFrom",
      "outputs": [],
      "stateMutability": "nonpayable",
      "type": "function"
    }
  ],
  "bytecode": "0x608060405260405180610160016040528061012f8152602001620044b961012f913960089080519060200190620000389291906200067e565b506040518060c001604052806040518060400160405280600581526020017f437275656c00000000000000000000000000000000000000000000000000000081525081526020016040518060400160405280600681526020017f436c65766572000000000000000000000000000000000000000000000000000081525081526020016040518060400160405280600581526020017f416e67727900000000000000000000000000000000000000000000000000000081525081526020016040518060400160405280600681526020017f4e6172726f77000000000000000000000000000000000000000000000000000081525081526020016040518060400160405280600681526020017f47656e746c65000000000000000000000000000000000000000000000000000081525081526020016040518060400160405280600881526020017f467269656e646c790000000000000000000000000000000000000000000000008152508152506009906006620001b69291906200070f565b506040518060c001604052806040518060400160405280600381526020017f417865000000000000000000000000000000000000000000000000000000000081525081526020016040518060400160405280600781526020017f4d6163686574650000000000000000000000000000000000000000000000000081525081526020016040518060400160405280600681526020017f446167676572000000000000000000000000000000000000000000000000000081525081526020016040518060400160405280600781526020017f4772656e6164650000000000000000000000000000000000000000000000000081525081526020016040518060400160405280600681526020017f526966666c65000000000000000000000000000000000000000000000000000081525081526020016040518060400160405280600381526020017f47756e0000000000000000000000000000000000000000000000000000000000815250815250600a906006620003349291906200070f565b506040518060c001604052806040518060400160405280600681526020017f546f746f726f000000000000000000000000000000000000000000000000000081525081526020016040518060400160405280600581526020017f4c7570696e00000000000000000000000000000000000000000000000000000081525081526020016040518060400160405280600781526020017f50696b616368750000000000000000000000000000000000000000000000000081525081526020016040518060400160405280600781526020017f557a756d616b690000000000000000000000000000000000000000000000000081525081526020016040518060400160405280600581526020017f496b61726900000000000000000000000000000000000000000000000000000081525081526020016040518060400160405280600481526020017f476f6b7500000000000000000000000000000000000000000000000000000000815250815250600b906006620004b29291906200070f565b50348015620004c057600080fd5b506040518060400160405280600d81526020017f5468726565576f7264734e4654000000000000000000000000000000000000008152506040518060400160405280600681526020017f33574f52445300000000000000000000000000000000000000000000000000008152508160009080519060200190620005459291906200067e565b5080600190805190602001906200055e9291906200067e565b505050620005ac6040518060400160405280602081526020017f54686973206973206e65772033574f524453204e465420434f4e545241435421815250620005b260201b620011a11760201c565b62000930565b6200065281604051602401620005c9919062000844565b6040516020818303038152906040527f41304fac000000000000000000000000000000000000000000000000000000007bffffffffffffffffffffffffffffffffffffffffffffffffffffffff19166020820180517bffffffffffffffffffffffffffffffffffffffffffffffffffffffff83818316178352505050506200065560201b60201c565b50565b60008151905060006a636f6e736f6c652e6c6f679050602083016000808483855afa5050505050565b8280546200068c90620008ba565b90600052602060002090601f016020900481019282620006b05760008555620006fc565b82601f10620006cb57805160ff1916838001178555620006fc565b82800160010185558215620006fc579182015b82811115620006fb578251825591602001919060010190620006de565b5b5090506200070b919062000776565b5090565b82805482825590600052602060002090810192821562000763579160200282015b8281111562000762578251829080519060200190620007519291906200067e565b509160200191906001019062000730565b5b50905062000772919062000795565b5090565b5b808211156200079157600081600090555060010162000777565b5090565b5b80821115620007b95760008181620007af9190620007bd565b5060010162000796565b5090565b508054620007cb90620008ba565b6000825580601f10620007df575062000800565b601f016020900490600052602060002090810190620007ff919062000776565b5b50565b6000620008108262000868565b6200081c818562000873565b93506200082e81856020860162000884565b62000839816200091f565b840191505092915050565b6000602082019050818103600083015262000860818462000803565b905092915050565b600081519050919050565b600082825260208201905092915050565b60005b83811015620008a457808201518184015260208101905062000887565b83811115620008b4576000848401525b50505050565b60006002820490506001821680620008d357607f821691505b60208210811415620008ea57620008e9620008f0565b5b50919050565b7f4e487b7100000000000000000000000000000000000000000000000000000000600052602260045260246000fd5b6000601f19601f8301169050919050565b613b7980620009406000396000f3fe608060405234801561001057600080fd5b506004361061010b5760003560e01c80636352211e116100a2578063b187301f11610071578063b187301f146102b6578063b88d4fde146102e6578063c575757a14610302578063c87b56dd14610332578063e985e9c5146103625761010b565b80636352211e1461021c57806370a082311461024c57806395d89b411461027c578063a22cb4651461029a5761010b565b806323b872dd116100de57806323b872dd146101aa5780632de38d68146101c657806342842e0e146101f657806362b41f49146102125761010b565b806301ffc9a71461011057806306fdde0314610140578063081812fc1461015e578063095ea7b31461018e575b600080fd5b61012a6004803603810190610125919061263d565b610392565b6040516101379190612d61565b60405180910390f35b610148610474565b6040516101559190612d7c565b60405180910390f35b6101786004803603810190610173919061268f565b610506565b6040516101859190612cd1565b60405180910390f35b6101a860048036038101906101a39190612601565b61058b565b005b6101c460048036038101906101bf91906124fb565b6106a3565b005b6101e060048036038101906101db919061268f565b610703565b6040516101ed9190612d7c565b60405180910390f35b610210600480360381019061020b91906124fb565b61089f565b005b61021a6108bf565b005b6102366004803603810190610231919061268f565b610b0b565b6040516102439190612cd1565b60405180910390f35b61026660048036038101906102619190612496565b610bbd565b604051610273919061300c565b60405180910390f35b610284610c75565b6040516102919190612d7c565b60405180910390f35b6102b460048036038101906102af91906125c5565b610d07565b005b6102d060048036038101906102cb919061268f565b610d1d565b6040516102dd9190612d7c565b60405180910390f35b61030060048036038101906102fb919061254a565b610e3b565b005b61031c6004803603810190610317919061268f565b610e9d565b6040516103299190612d7c565b60405180910390f35b61034c6004803603810190610347919061268f565b610fbb565b6040516103599190612d7c565b60405180910390f35b61037c600480360381019061037791906124bf565b61110d565b6040516103899190612d61565b60405180910390f35b60007f80ac58cd000000000000000000000000000000000000000000000000000000007bffffffffffffffffffffffffffffffffffffffffffffffffffffffff1916827bffffffffffffffffffffffffffffffffffffffffffffffffffffffff1916148061045d57507f5b5e139f000000000000000000000000000000000000000000000000000000007bffffffffffffffffffffffffffffffffffffffffffffffffffffffff1916827bffffffffffffffffffffffffffffffffffffffffffffffffffffffff1916145b8061046d575061046c8261123a565b5b9050919050565b606060008054610483906132a0565b80601f01602080910402602001604051908101604052809291908181526020018280546104af906132a0565b80156104fc5780601f106104d1576101008083540402835291602001916104fc565b820191906000526020600020905b8154815290600101906020018083116104df57829003601f168201915b5050505050905090565b6000610511826112a4565b610550576040517f08c379a000000000000000000000000000000000000000000000000000000000815260040161054790612f6c565b60405180910390fd5b6004600083815260200190815260200160002060009054906101000a900473ffffffffffffffffffffffffffffffffffffffff169050919050565b600061059682610b0b565b90508073ffffffffffffffffffffffffffffffffffffffff168373ffffffffffffffffffffffffffffffffffffffff161415610607576040517f08c379a00000000000000000000000000000000000000000000000000000000081526004016105fe90612fcc565b60405180910390fd5b8073ffffffffffffffffffffffffffffffffffffffff16610626611310565b73ffffffffffffffffffffffffffffffffffffffff16148061065557506106548161064f611310565b61110d565b5b610694576040517f08c379a000000000000000000000000000000000000000000000000000000000815260040161068b90612eac565b60405180910390fd5b61069e8383611318565b505050565b6106b46106ae611310565b826113d1565b6106f3576040517f08c379a00000000000000000000000000000000000000000000000000000000081526004016106ea90612fec565b60405180910390fd5b6106fe8383836114af565b505050565b606060006107376107138461170b565b6040516020016107239190612c8d565b6040516020818303038152906040526118b8565b90506107786040518060400160405280601781526020017f76616c75652072616e642066726f6d2072616e646f6d3a000000000000000000815250826118eb565b60098054905081610789919061334c565b90506107ca6040518060400160405280601381526020017f76616c75652072616e6420616674657220253a00000000000000000000000000815250826118eb565b60098181548110610804577f4e487b7100000000000000000000000000000000000000000000000000000000600052603260045260246000fd5b906000526020600020018054610819906132a0565b80601f0160208091040260200160405190810160405280929190818152602001828054610845906132a0565b80156108925780601f1061086757610100808354040283529160200191610892565b820191906000526020600020905b81548152906001019060200180831161087557829003601f168201915b5050505050915050919050565b6108ba83838360405180602001604052806000815250610e3b565b505050565b60006108cb6007611987565b905060006108d882610703565b905060006108e583610d1d565b905060006108f284610e9d565b9050600083838360405160200161090b93929190612b8a565b6040516020818303038152906040529050600060088585856040516020016109369493929190612bbb565b6040516020818303038152906040529050600061097b8361095684611995565b604051602001610967929190612c48565b604051602081830303815290604052611995565b90506000816040516020016109909190612caf565b60405160208183030381529060405290506109df6040518060400160405280600181526020017f0a000000000000000000000000000000000000000000000000000000000000008152506111a1565b610a1d6040518060400160405280601c81526020017f46696e616c20546f6b656e555249202d2d2d2d2d2d2d2d2d2d2d2d0a000000008152506111a1565b610a26816111a1565b610a646040518060400160405280601781526020017f2d2d2d2d2d2d2d2d2d2d2d2d2d2d2d2d2d2d2d2d2d2d0a0000000000000000008152506111a1565b610a6e3389611b53565b610a788882611b71565b610a9b604051806060016040528060258152602001613adf602591398933611be5565b610aa56007611c84565b610ac8604051806060016040528060258152602001613adf602591398933611be5565b7f1c05098ed1ff38e6238d2b1b04b2c7977d4c94ce651bda6473f9dba8dbf01da03389604051610af9929190612d38565b60405180910390a15050505050505050565b6000806002600084815260200190815260200160002060009054906101000a900473ffffffffffffffffffffffffffffffffffffffff169050600073ffffffffffffffffffffffffffffffffffffffff168173ffffffffffffffffffffffffffffffffffffffff161415610bb4576040517f08c379a0000000000000000000000000000000000000000000000000000000008152600401610bab90612eec565b60405180910390fd5b80915050919050565b60008073ffffffffffffffffffffffffffffffffffffffff168273ffffffffffffffffffffffffffffffffffffffff161415610c2e576040517f08c379a0000000000000000000000000000000000000000000000000000000008152600401610c2590612ecc565b60405180910390fd5b600360008373ffffffffffffffffffffffffffffffffffffffff1673ffffffffffffffffffffffffffffffffffffffff168152602001908152602001600020549050919050565b606060018054610c84906132a0565b80601f0160208091040260200160405190810160405280929190818152602001828054610cb0906132a0565b8015610cfd5780601f10610cd257610100808354040283529160200191610cfd565b820191906000526020600020905b815481529060010190602001808311610ce057829003601f168201915b5050505050905090565b610d19610d12611310565b8383611c9a565b5050565b60606000610d51610d2d8461170b565b604051602001610d3d9190612c26565b6040516020818303038152906040526118b8565b9050600a8054905081610d64919061334c565b9050600a8181548110610da0577f4e487b7100000000000000000000000000000000000000000000000000000000600052603260045260246000fd5b906000526020600020018054610db5906132a0565b80601f0160208091040260200160405190810160405280929190818152602001828054610de1906132a0565b8015610e2e5780601f10610e0357610100808354040283529160200191610e2e565b820191906000526020600020905b815481529060010190602001808311610e1157829003601f168201915b5050505050915050919050565b610e4c610e46611310565b836113d1565b610e8b576040517f08c379a0000000000000000000000000000000000000000000000000000000008152600401610e8290612fec565b60405180910390fd5b610e9784848484611e07565b50505050565b60606000610ed1610ead8461170b565b604051602001610ebd9190612c04565b6040516020818303038152906040526118b8565b9050600b8054905081610ee4919061334c565b9050600b8181548110610f20577f4e487b7100000000000000000000000000000000000000000000000000000000600052603260045260246000fd5b906000526020600020018054610f35906132a0565b80601f0160208091040260200160405190810160405280929190818152602001828054610f61906132a0565b8015610fae5780601f10610f8357610100808354040283529160200191610fae565b820191906000526020600020905b815481529060010190602001808311610f9157829003601f168201915b5050505050915050919050565b6060610fc6826112a4565b611005576040517f08c379a0000000000000000000000000000000000000000000000000000000008152600401610ffc90612f4c565b60405180910390fd5b6000600660008481526020019081526020016000208054611025906132a0565b80601f0160208091040260200160405190810160405280929190818152602001828054611051906132a0565b801561109e5780601f106110735761010080835404028352916020019161109e565b820191906000526020600020905b81548152906001019060200180831161108157829003601f168201915b5050505050905060006110af611e63565b90506000815114156110c5578192505050611108565b6000825111156110fa5780826040516020016110e2929190612b66565b60405160208183030381529060405292505050611108565b61110384611e7a565b925050505b919050565b6000600560008473ffffffffffffffffffffffffffffffffffffffff1673ffffffffffffffffffffffffffffffffffffffff16815260200190815260200160002060008373ffffffffffffffffffffffffffffffffffffffff1673ffffffffffffffffffffffffffffffffffffffff16815260200190815260200160002060009054906101000a900460ff16905092915050565b611237816040516024016111b59190612d7c565b6040516020818303038152906040527f41304fac000000000000000000000000000000000000000000000000000000007bffffffffffffffffffffffffffffffffffffffffffffffffffffffff19166020820180517bffffffffffffffffffffffffffffffffffffffffffffffffffffffff8381831617835250505050611f21565b50565b60007f01ffc9a7000000000000000000000000000000000000000000000000000000007bffffffffffffffffffffffffffffffffffffffffffffffffffffffff1916827bffffffffffffffffffffffffffffffffffffffffffffffffffffffff1916149050919050565b60008073ffffffffffffffffffffffffffffffffffffffff166002600084815260200190815260200160002060009054906101000a900473ffffffffffffffffffffffffffffffffffffffff1673ffffffffffffffffffffffffffffffffffffffff1614159050919050565b600033905090565b816004600083815260200190815260200160002060006101000a81548173ffffffffffffffffffffffffffffffffffffffff021916908373ffffffffffffffffffffffffffffffffffffffff160217905550808273ffffffffffffffffffffffffffffffffffffffff1661138b83610b0b565b73ffffffffffffffffffffffffffffffffffffffff167f8c5be1e5ebec7d5bd14f71427d1e84f3dd0314c0f7b2291e5b200ac8c7c3b92560405160405180910390a45050565b60006113dc826112a4565b61141b576040517f08c379a000000000000000000000000000000000000000000000000000000000815260040161141290612e8c565b60405180910390fd5b600061142683610b0b565b90508073ffffffffffffffffffffffffffffffffffffffff168473ffffffffffffffffffffffffffffffffffffffff16148061149557508373ffffffffffffffffffffffffffffffffffffffff1661147d84610506565b73ffffffffffffffffffffffffffffffffffffffff16145b806114a657506114a5818561110d565b5b91505092915050565b8273ffffffffffffffffffffffffffffffffffffffff166114cf82610b0b565b73ffffffffffffffffffffffffffffffffffffffff1614611525576040517f08c379a000000000000000000000000000000000000000000000000000000000815260040161151c90612f8c565b60405180910390fd5b600073ffffffffffffffffffffffffffffffffffffffff168273ffffffffffffffffffffffffffffffffffffffff161415611595576040517f08c379a000000000000000000000000000000000000000000000000000000000815260040161158c90612e4c565b60405180910390fd5b6115a0838383611f4a565b6115ab600082611318565b6001600360008573ffffffffffffffffffffffffffffffffffffffff1673ffffffffffffffffffffffffffffffffffffffff16815260200190815260200160002060008282546115fb91906131b6565b925050819055506001600360008473ffffffffffffffffffffffffffffffffffffffff1673ffffffffffffffffffffffffffffffffffffffff168152602001908152602001600020600082825461165291906130d5565b92505081905550816002600083815260200190815260200160002060006101000a81548173ffffffffffffffffffffffffffffffffffffffff021916908373ffffffffffffffffffffffffffffffffffffffff160217905550808273ffffffffffffffffffffffffffffffffffffffff168473ffffffffffffffffffffffffffffffffffffffff167fddf252ad1be2c89b69c2b068fc378daa952ba7f163c4a11628f55a4df523b3ef60405160405180910390a4505050565b60606000821415611753576040518060400160405280600181526020017f300000000000000000000000000000000000000000000000000000000000000081525090506118b3565b600082905060005b6000821461178557808061176e90613303565b915050600a8261177e919061312b565b915061175b565b60008167ffffffffffffffff8111156117c7577f4e487b7100000000000000000000000000000000000000000000000000000000600052604160045260246000fd5b6040519080825280601f01601f1916602001820160405280156117f95781602001600182028036833780820191505090505b5090505b600085146118ac5760018261181291906131b6565b9150600a85611821919061334c565b603061182d91906130d5565b60f81b818381518110611869577f4e487b7100000000000000000000000000000000000000000000000000000000600052603260045260246000fd5b60200101907effffffffffffffffffffffffffffffffffffffffffffffffffffffffffffff1916908160001a905350600a856118a5919061312b565b94506117fd565b8093505050505b919050565b6000816040516020016118cb9190612b4f565b6040516020818303038152906040528051906020012060001c9050919050565b6119838282604051602401611901929190612d9e565b6040516020818303038152906040527f9710a9d0000000000000000000000000000000000000000000000000000000007bffffffffffffffffffffffffffffffffffffffffffffffffffffffff19166020820180517bffffffffffffffffffffffffffffffffffffffffffffffffffffffff8381831617835250505050611f21565b5050565b600081600001549050919050565b606060008251905060008114156119be5760405180602001604052806000815250915050611b4e565b600060036002836119cf91906130d5565b6119d9919061312b565b60046119e5919061315c565b905060006020826119f691906130d5565b67ffffffffffffffff811115611a35577f4e487b7100000000000000000000000000000000000000000000000000000000600052604160045260246000fd5b6040519080825280601f01601f191660200182016040528015611a675781602001600182028036833780820191505090505b5090506000604051806060016040528060408152602001613b04604091399050600181016020830160005b86811015611b0b5760038101905062ffffff818a015116603f8160121c168401518060081b905060ff603f83600c1c1686015116810190508060081b905060ff603f8360061c1686015116810190508060081b905060ff603f831686015116810190508060e01b90508084526004840193505050611a92565b506003860660018114611b255760028114611b3557611b40565b613d3d60f01b6002830352611b40565b603d60f81b60018303525b508484525050819450505050505b919050565b611b6d828260405180602001604052806000815250611f4f565b5050565b611b7a826112a4565b611bb9576040517f08c379a0000000000000000000000000000000000000000000000000000000008152600401611bb090612f0c565b60405180910390fd5b80600660008481526020019081526020016000209080519060200190611be0929190612322565b505050565b611c7f838383604051602401611bfd93929190612dce565b6040516020818303038152906040527fe3849f79000000000000000000000000000000000000000000000000000000007bffffffffffffffffffffffffffffffffffffffffffffffffffffffff19166020820180517bffffffffffffffffffffffffffffffffffffffffffffffffffffffff8381831617835250505050611f21565b505050565b6001816000016000828254019250508190555050565b8173ffffffffffffffffffffffffffffffffffffffff168373ffffffffffffffffffffffffffffffffffffffff161415611d09576040517f08c379a0000000000000000000000000000000000000000000000000000000008152600401611d0090612e6c565b60405180910390fd5b80600560008573ffffffffffffffffffffffffffffffffffffffff1673ffffffffffffffffffffffffffffffffffffffff16815260200190815260200160002060008473ffffffffffffffffffffffffffffffffffffffff1673ffffffffffffffffffffffffffffffffffffffff16815260200190815260200160002060006101000a81548160ff0219169083151502179055508173ffffffffffffffffffffffffffffffffffffffff168373ffffffffffffffffffffffffffffffffffffffff167f17307eab39ab6107e8899845ad3d59bd9653f200f220920489ca2b5937696c3183604051611dfa9190612d61565b60405180910390a3505050565b611e128484846114af565b611e1e84848484611faa565b611e5d576040517f08c379a0000000000000000000000000000000000000000000000000000000008152600401611e5490612e0c565b60405180910390fd5b50505050565b606060405180602001604052806000815250905090565b6060611e85826112a4565b611ec4576040517f08c379a0000000000000000000000000000000000000000000000000000000008152600401611ebb90612fac565b60405180910390fd5b6000611ece611e63565b90506000815111611eee5760405180602001604052806000815250611f19565b80611ef88461170b565b604051602001611f09929190612b66565b6040516020818303038152906040525b915050919050565b60008151905060006a636f6e736f6c652e6c6f679050602083016000808483855afa5050505050565b505050565b611f598383612141565b611f666000848484611faa565b611fa5576040517f08c379a0000000000000000000000000000000000000000000000000000000008152600401611f9c90612e0c565b60405180910390fd5b505050565b6000611fcb8473ffffffffffffffffffffffffffffffffffffffff1661230f565b15612134578373ffffffffffffffffffffffffffffffffffffffff1663150b7a02611ff4611310565b8786866040518563ffffffff1660e01b81526004016120169493929190612cec565b602060405180830381600087803b15801561203057600080fd5b505af192505050801561206157506040513d601f19601f8201168201806040525081019061205e9190612666565b60015b6120e4573d8060008114612091576040519150601f19603f3d011682016040523d82523d6000602084013e612096565b606091505b506000815114156120dc576040517f08c379a00000000000000000000000000000000000000000000000000000000081526004016120d390612e0c565b60405180910390fd5b805181602001fd5b63150b7a0260e01b7bffffffffffffffffffffffffffffffffffffffffffffffffffffffff1916817bffffffffffffffffffffffffffffffffffffffffffffffffffffffff191614915050612139565b600190505b949350505050565b600073ffffffffffffffffffffffffffffffffffffffff168273ffffffffffffffffffffffffffffffffffffffff1614156121b1576040517f08c379a00000000000000000000000000000000000000000000000000000000081526004016121a890612f2c565b60405180910390fd5b6121ba816112a4565b156121fa576040517f08c379a00000000000000000000000000000000000000000000000000000000081526004016121f190612e2c565b60405180910390fd5b61220660008383611f4a565b6001600360008473ffffffffffffffffffffffffffffffffffffffff1673ffffffffffffffffffffffffffffffffffffffff168152602001908152602001600020600082825461225691906130d5565b92505081905550816002600083815260200190815260200160002060006101000a81548173ffffffffffffffffffffffffffffffffffffffff021916908373ffffffffffffffffffffffffffffffffffffffff160217905550808273ffffffffffffffffffffffffffffffffffffffff16600073ffffffffffffffffffffffffffffffffffffffff167fddf252ad1be2c89b69c2b068fc378daa952ba7f163c4a11628f55a4df523b3ef60405160405180910390a45050565b600080823b905060008111915050919050565b82805461232e906132a0565b90600052602060002090601f0160209004810192826123505760008555612397565b82601f1061236957805160ff1916838001178555612397565b82800160010185558215612397579182015b8281111561239657825182559160200191906001019061237b565b5b5090506123a491906123a8565b5090565b5b808211156123c15760008160009055506001016123a9565b5090565b60006123d86123d38461304c565b613027565b9050828152602081018484840111156123f057600080fd5b6123fb84828561325e565b509392505050565b60008135905061241281613a82565b92915050565b60008135905061242781613a99565b92915050565b60008135905061243c81613ab0565b92915050565b60008151905061245181613ab0565b92915050565b600082601f83011261246857600080fd5b81356124788482602086016123c5565b91505092915050565b60008135905061249081613ac7565b92915050565b6000602082840312156124a857600080fd5b60006124b684828501612403565b91505092915050565b600080604083850312156124d257600080fd5b60006124e085828601612403565b92505060206124f185828601612403565b9150509250929050565b60008060006060848603121561251057600080fd5b600061251e86828701612403565b935050602061252f86828701612403565b925050604061254086828701612481565b9150509250925092565b6000806000806080858703121561256057600080fd5b600061256e87828801612403565b945050602061257f87828801612403565b935050604061259087828801612481565b925050606085013567ffffffffffffffff8111156125ad57600080fd5b6125b987828801612457565b91505092959194509250565b600080604083850312156125d857600080fd5b60006125e685828601612403565b92505060206125f785828601612418565b9150509250929050565b6000806040838503121561261457600080fd5b600061262285828601612403565b925050602061263385828601612481565b9150509250929050565b60006020828403121561264f57600080fd5b600061265d8482850161242d565b91505092915050565b60006020828403121561267857600080fd5b600061268684828501612442565b91505092915050565b6000602082840312156126a157600080fd5b60006126af84828501612481565b91505092915050565b6126c1816131ea565b82525050565b6126d0816131fc565b82525050565b60006126e182613092565b6126eb81856130a8565b93506126fb81856020860161326d565b61270481613439565b840191505092915050565b600061271a8261309d565b61272481856130b9565b935061273481856020860161326d565b61273d81613439565b840191505092915050565b60006127538261309d565b61275d81856130ca565b935061276d81856020860161326d565b80840191505092915050565b60008154612786816132a0565b61279081866130ca565b945060018216600081146127ab57600181146127bc576127ef565b60ff198316865281860193506127ef565b6127c58561307d565b60005b838110156127e7578154818901526001820191506020810190506127c8565b838801955050505b50505092915050565b60006128056032836130b9565b91506128108261344a565b604082019050919050565b6000612828601c836130b9565b915061283382613499565b602082019050919050565b600061284b600a836130ca565b9150612856826134c2565b600a82019050919050565b600061286e6024836130b9565b9150612879826134eb565b604082019050919050565b60006128916019836130b9565b915061289c8261353a565b602082019050919050565b60006128b46065836130ca565b91506128bf82613563565b606582019050919050565b60006128d7600b836130ca565b91506128e2826135fe565b600b82019050919050565b60006128fa602c836130b9565b915061290582613627565b604082019050919050565b600061291d600d836130ca565b915061292882613676565b600d82019050919050565b60006129406038836130b9565b915061294b8261369f565b604082019050919050565b6000612963602a836130b9565b915061296e826136ee565b604082019050919050565b60006129866029836130b9565b91506129918261373d565b604082019050919050565b60006129a9602e836130b9565b91506129b48261378c565b604082019050919050565b60006129cc6002836130ca565b91506129d7826137db565b600282019050919050565b60006129ef6020836130b9565b91506129fa82613804565b602082019050919050565b6000612a126031836130b9565b9150612a1d8261382d565b604082019050919050565b6000612a35602c836130b9565b9150612a408261387c565b604082019050919050565b6000612a586029836130b9565b9150612a63826138cb565b604082019050919050565b6000612a7b602f836130b9565b9150612a868261391a565b604082019050919050565b6000612a9e600a836130ca565b9150612aa982613969565b600a82019050919050565b6000612ac16021836130b9565b9150612acc82613992565b604082019050919050565b6000612ae4600a836130ca565b9150612aef826139e1565b600a82019050919050565b6000612b07601d836130ca565b9150612b1282613a0a565b601d82019050919050565b6000612b2a6031836130b9565b9150612b3582613a33565b604082019050919050565b612b4981613254565b82525050565b6000612b5b8284612748565b915081905092915050565b6000612b728285612748565b9150612b7e8284612748565b91508190509392505050565b6000612b968286612748565b9150612ba28285612748565b9150612bae8284612748565b9150819050949350505050565b6000612bc78287612779565b9150612bd38286612748565b9150612bdf8285612748565b9150612beb8284612748565b9150612bf682612910565b915081905095945050505050565b6000612c0f8261283e565b9150612c1b8284612748565b915081905092915050565b6000612c31826128ca565b9150612c3d8284612748565b915081905092915050565b6000612c5382612a91565b9150612c5f8285612748565b9150612c6a826128a7565b9150612c768284612748565b9150612c81826129bf565b91508190509392505050565b6000612c9882612ad7565b9150612ca48284612748565b915081905092915050565b6000612cba82612afa565b9150612cc68284612748565b915081905092915050565b6000602082019050612ce660008301846126b8565b92915050565b6000608082019050612d0160008301876126b8565b612d0e60208301866126b8565b612d1b6040830185612b40565b8181036060830152612d2d81846126d6565b905095945050505050565b6000604082019050612d4d60008301856126b8565b612d5a6020830184612b40565b9392505050565b6000602082019050612d7660008301846126c7565b92915050565b60006020820190508181036000830152612d96818461270f565b905092915050565b60006040820190508181036000830152612db8818561270f565b9050612dc76020830184612b40565b9392505050565b60006060820190508181036000830152612de8818661270f565b9050612df76020830185612b40565b612e0460408301846126b8565b949350505050565b60006020820190508181036000830152612e25816127f8565b9050919050565b60006020820190508181036000830152612e458161281b565b9050919050565b60006020820190508181036000830152612e6581612861565b9050919050565b60006020820190508181036000830152612e8581612884565b9050919050565b60006020820190508181036000830152612ea5816128ed565b9050919050565b60006020820190508181036000830152612ec581612933565b9050919050565b60006020820190508181036000830152612ee581612956565b9050919050565b60006020820190508181036000830152612f0581612979565b9050919050565b60006020820190508181036000830152612f258161299c565b9050919050565b60006020820190508181036000830152612f45816129e2565b9050919050565b60006020820190508181036000830152612f6581612a05565b9050919050565b60006020820190508181036000830152612f8581612a28565b9050919050565b60006020820190508181036000830152612fa581612a4b565b9050919050565b60006020820190508181036000830152612fc581612a6e565b9050919050565b60006020820190508181036000830152612fe581612ab4565b9050919050565b6000602082019050818103600083015261300581612b1d565b9050919050565b60006020820190506130216000830184612b40565b92915050565b6000613031613042565b905061303d82826132d2565b919050565b6000604051905090565b600067ffffffffffffffff8211156130675761306661340a565b5b61307082613439565b9050602081019050919050565b60008190508160005260206000209050919050565b600081519050919050565b600081519050919050565b600082825260208201905092915050565b600082825260208201905092915050565b600081905092915050565b60006130e082613254565b91506130eb83613254565b9250827fffffffffffffffffffffffffffffffffffffffffffffffffffffffffffffffff038211156131205761311f61337d565b5b828201905092915050565b600061313682613254565b915061314183613254565b925082613151576131506133ac565b5b828204905092915050565b600061316782613254565b915061317283613254565b9250817fffffffffffffffffffffffffffffffffffffffffffffffffffffffffffffffff04831182151516156131ab576131aa61337d565b5b828202905092915050565b60006131c182613254565b91506131cc83613254565b9250828210156131df576131de61337d565b5b828203905092915050565b60006131f582613234565b9050919050565b60008115159050919050565b60007fffffffff0000000000000000000000000000000000000000000000000000000082169050919050565b600073ffffffffffffffffffffffffffffffffffffffff82169050919050565b6000819050919050565b82818337600083830152505050565b60005b8381101561328b578082015181840152602081019050613270565b8381111561329a576000848401525b50505050565b600060028204905060018216806132b857607f821691505b602082108114156132cc576132cb6133db565b5b50919050565b6132db82613439565b810181811067ffffffffffffffff821117156132fa576132f961340a565b5b80604052505050565b600061330e82613254565b91507fffffffffffffffffffffffffffffffffffffffffffffffffffffffffffffffff8214156133415761334061337d565b5b600182019050919050565b600061335782613254565b915061336283613254565b925082613372576133716133ac565b5b828206905092915050565b7f4e487b7100000000000000000000000000000000000000000000000000000000600052601160045260246000fd5b7f4e487b7100000000000000000000000000000000000000000000000000000000600052601260045260246000fd5b7f4e487b7100000000000000000000000000000000000000000000000000000000600052602260045260246000fd5b7f4e487b7100000000000000000000000000000000000000000000000000000000600052604160045260246000fd5b6000601f19601f8301169050919050565b7f4552433732313a207472616e7366657220746f206e6f6e20455243373231526560008201527f63656976657220696d706c656d656e7465720000000000000000000000000000602082015250565b7f4552433732313a20746f6b656e20616c7265616479206d696e74656400000000600082015250565b7f54484952445f574f524400000000000000000000000000000000000000000000600082015250565b7f4552433732313a207472616e7366657220746f20746865207a65726f2061646460008201527f7265737300000000000000000000000000000000000000000000000000000000602082015250565b7f4552433732313a20617070726f766520746f2063616c6c657200000000000000600082015250565b7f222c20226465736372697074696f6e223a2022417765736f6d65206e6577204e60008201527f465420636f6c6c656374696f6e206f6620626c61636b20737175617265732e2260208201527f2c22696d616765223a2022646174613a696d6167652f7376672b786d6c3b626160408201527f736536342c000000000000000000000000000000000000000000000000000000606082015250565b7f5345434f4e445f574f5244000000000000000000000000000000000000000000600082015250565b7f4552433732313a206f70657261746f7220717565727920666f72206e6f6e657860008201527f697374656e7420746f6b656e0000000000000000000000000000000000000000602082015250565b7f3c2f746578743e3c2f7376673e00000000000000000000000000000000000000600082015250565b7f4552433732313a20617070726f76652063616c6c6572206973206e6f74206f7760008201527f6e6572206e6f7220617070726f76656420666f7220616c6c0000000000000000602082015250565b7f4552433732313a2062616c616e636520717565727920666f7220746865207a6560008201527f726f206164647265737300000000000000000000000000000000000000000000602082015250565b7f4552433732313a206f776e657220717565727920666f72206e6f6e657869737460008201527f656e7420746f6b656e0000000000000000000000000000000000000000000000602082015250565b7f45524337323155524953746f726167653a2055524920736574206f66206e6f6e60008201527f6578697374656e7420746f6b656e000000000000000000000000000000000000602082015250565b7f227d000000000000000000000000000000000000000000000000000000000000600082015250565b7f4552433732313a206d696e7420746f20746865207a65726f2061646472657373600082015250565b7f45524337323155524953746f726167653a2055524920717565727920666f722060008201527f6e6f6e6578697374656e7420746f6b656e000000000000000000000000000000602082015250565b7f4552433732313a20617070726f76656420717565727920666f72206e6f6e657860008201527f697374656e7420746f6b656e0000000000000000000000000000000000000000602082015250565b7f4552433732313a207472616e73666572206f6620746f6b656e2074686174206960008201527f73206e6f74206f776e0000000000000000000000000000000000000000000000602082015250565b7f4552433732314d657461646174613a2055524920717565727920666f72206e6f60008201527f6e6578697374656e7420746f6b656e0000000000000000000000000000000000602082015250565b7f7b226e616d65223a202200000000000000000000000000000000000000000000600082015250565b7f4552433732313a20617070726f76616c20746f2063757272656e74206f776e6560008201527f7200000000000000000000000000000000000000000000000000000000000000602082015250565b7f46495253545f574f524400000000000000000000000000000000000000000000600082015250565b7f646174613a6170706c69636174696f6e2f6a736f6e3b6261736536342c000000600082015250565b7f4552433732313a207472616e736665722063616c6c6572206973206e6f74206f60008201527f776e6572206e6f7220617070726f766564000000000000000000000000000000602082015250565b613a8b816131ea565b8114613a9657600080fd5b50565b613aa2816131fc565b8114613aad57600080fd5b50565b613ab981613208565b8114613ac457600080fd5b50565b613ad081613254565b8114613adb57600080fd5b5056fe416e204e465420772f20494420257320686173206265656e206d696e74656420746f2025734142434445464748494a4b4c4d4e4f505152535455565758595a6162636465666768696a6b6c6d6e6f707172737475767778797a303132333435363738392b2fa2646970667358221220f85416ce8cbe871c7e8ad9cdef2aae2c867352b8a81dd7817e134cbfbab5f68064736f6c634300080400333c73766720786d6c6e733d27687474703a2f2f7777772e77332e6f72672f323030302f73766727207072657365727665417370656374526174696f3d27784d696e594d696e206d656574272076696577426f783d273020302033353020333530273e3c7374796c653e2e62617365207b2066696c6c3a2077686974653b20666f6e742d66616d696c793a2073657269663b20666f6e742d73697a653a20323470783b207d3c2f7374796c653e3c726563742077696474683d273130302527206865696768743d2731303025272066696c6c3d27626c61636b27202f3e3c7465787420783d273530252720793d273530252720636c6173733d27626173652720646f6d696e616e742d626173656c696e653d276d6964646c652720746578742d616e63686f723d276d6964646c65273e",
  "linkReferences": {},
  "deployedLinkReferences": {}
}